{
  "contractName": "NFT",
  "abi": [
    {
      "inputs": [
        {
          "internalType": "address",
          "name": "marketplaceAddress",
          "type": "address"
        }
      ],
      "stateMutability": "nonpayable",
      "type": "constructor"
    },
    {
      "anonymous": false,
      "inputs": [
        {
          "indexed": true,
          "internalType": "address",
          "name": "owner",
          "type": "address"
        },
        {
          "indexed": true,
          "internalType": "address",
          "name": "approved",
          "type": "address"
        },
        {
          "indexed": true,
          "internalType": "uint256",
          "name": "tokenId",
          "type": "uint256"
        }
      ],
      "name": "Approval",
      "type": "event"
    },
    {
      "anonymous": false,
      "inputs": [
        {
          "indexed": true,
          "internalType": "address",
          "name": "owner",
          "type": "address"
        },
        {
          "indexed": true,
          "internalType": "address",
          "name": "operator",
          "type": "address"
        },
        {
          "indexed": false,
          "internalType": "bool",
          "name": "approved",
          "type": "bool"
        }
      ],
      "name": "ApprovalForAll",
      "type": "event"
    },
    {
      "anonymous": false,
      "inputs": [
        {
          "indexed": true,
          "internalType": "address",
          "name": "from",
          "type": "address"
        },
        {
          "indexed": true,
          "internalType": "address",
          "name": "to",
          "type": "address"
        },
        {
          "indexed": true,
          "internalType": "uint256",
          "name": "tokenId",
          "type": "uint256"
        }
      ],
      "name": "Transfer",
      "type": "event"
    },
    {
      "inputs": [
        {
          "internalType": "address",
          "name": "to",
          "type": "address"
        },
        {
          "internalType": "uint256",
          "name": "tokenId",
          "type": "uint256"
        }
      ],
      "name": "approve",
      "outputs": [],
      "stateMutability": "nonpayable",
      "type": "function"
    },
    {
      "inputs": [
        {
          "internalType": "address",
          "name": "owner",
          "type": "address"
        }
      ],
      "name": "balanceOf",
      "outputs": [
        {
          "internalType": "uint256",
          "name": "",
          "type": "uint256"
        }
      ],
      "stateMutability": "view",
      "type": "function",
      "constant": true
    },
    {
      "inputs": [
        {
          "internalType": "uint256",
          "name": "tokenId",
          "type": "uint256"
        }
      ],
      "name": "getApproved",
      "outputs": [
        {
          "internalType": "address",
          "name": "",
          "type": "address"
        }
      ],
      "stateMutability": "view",
      "type": "function",
      "constant": true
    },
    {
      "inputs": [
        {
          "internalType": "address",
          "name": "owner",
          "type": "address"
        },
        {
          "internalType": "address",
          "name": "operator",
          "type": "address"
        }
      ],
      "name": "isApprovedForAll",
      "outputs": [
        {
          "internalType": "bool",
          "name": "",
          "type": "bool"
        }
      ],
      "stateMutability": "view",
      "type": "function",
      "constant": true
    },
    {
      "inputs": [],
      "name": "name",
      "outputs": [
        {
          "internalType": "string",
          "name": "",
          "type": "string"
        }
      ],
      "stateMutability": "view",
      "type": "function",
      "constant": true
    },
    {
      "inputs": [
        {
          "internalType": "uint256",
          "name": "tokenId",
          "type": "uint256"
        }
      ],
      "name": "ownerOf",
      "outputs": [
        {
          "internalType": "address",
          "name": "",
          "type": "address"
        }
      ],
      "stateMutability": "view",
      "type": "function",
      "constant": true
    },
    {
      "inputs": [
        {
          "internalType": "address",
          "name": "from",
          "type": "address"
        },
        {
          "internalType": "address",
          "name": "to",
          "type": "address"
        },
        {
          "internalType": "uint256",
          "name": "tokenId",
          "type": "uint256"
        }
      ],
      "name": "safeTransferFrom",
      "outputs": [],
      "stateMutability": "nonpayable",
      "type": "function"
    },
    {
      "inputs": [
        {
          "internalType": "address",
          "name": "from",
          "type": "address"
        },
        {
          "internalType": "address",
          "name": "to",
          "type": "address"
        },
        {
          "internalType": "uint256",
          "name": "tokenId",
          "type": "uint256"
        },
        {
          "internalType": "bytes",
          "name": "_data",
          "type": "bytes"
        }
      ],
      "name": "safeTransferFrom",
      "outputs": [],
      "stateMutability": "nonpayable",
      "type": "function"
    },
    {
      "inputs": [
        {
          "internalType": "address",
          "name": "operator",
          "type": "address"
        },
        {
          "internalType": "bool",
          "name": "approved",
          "type": "bool"
        }
      ],
      "name": "setApprovalForAll",
      "outputs": [],
      "stateMutability": "nonpayable",
      "type": "function"
    },
    {
      "inputs": [
        {
          "internalType": "bytes4",
          "name": "interfaceId",
          "type": "bytes4"
        }
      ],
      "name": "supportsInterface",
      "outputs": [
        {
          "internalType": "bool",
          "name": "",
          "type": "bool"
        }
      ],
      "stateMutability": "view",
      "type": "function",
      "constant": true
    },
    {
      "inputs": [],
      "name": "symbol",
      "outputs": [
        {
          "internalType": "string",
          "name": "",
          "type": "string"
        }
      ],
      "stateMutability": "view",
      "type": "function",
      "constant": true
    },
    {
      "inputs": [
        {
          "internalType": "uint256",
          "name": "tokenId",
          "type": "uint256"
        }
      ],
      "name": "tokenURI",
      "outputs": [
        {
          "internalType": "string",
          "name": "",
          "type": "string"
        }
      ],
      "stateMutability": "view",
      "type": "function",
      "constant": true
    },
    {
      "inputs": [
        {
          "internalType": "address",
          "name": "from",
          "type": "address"
        },
        {
          "internalType": "address",
          "name": "to",
          "type": "address"
        },
        {
          "internalType": "uint256",
          "name": "tokenId",
          "type": "uint256"
        }
      ],
      "name": "transferFrom",
      "outputs": [],
      "stateMutability": "nonpayable",
      "type": "function"
    },
    {
      "inputs": [
        {
          "internalType": "string",
          "name": "nftTokenURl",
          "type": "string"
        }
      ],
      "name": "createNFtToken",
      "outputs": [
        {
          "internalType": "uint256",
          "name": "",
          "type": "uint256"
        }
      ],
      "stateMutability": "nonpayable",
      "type": "function"
    },
    {
      "inputs": [
        {
          "internalType": "address",
          "name": "from",
          "type": "address"
        },
        {
          "internalType": "address",
          "name": "to",
          "type": "address"
        },
        {
          "internalType": "uint256",
          "name": "tokenId",
          "type": "uint256"
        }
      ],
      "name": "transferToken",
      "outputs": [],
      "stateMutability": "nonpayable",
      "type": "function"
    },
    {
      "inputs": [],
      "name": "getContractAddress",
      "outputs": [
        {
          "internalType": "address",
          "name": "",
          "type": "address"
        }
      ],
      "stateMutability": "view",
      "type": "function",
      "constant": true
    }
  ],
  "bytecode": "0x60806040523480156200001157600080fd5b506040516200302738038062003027833981810160405281019062000037919062000239565b6040518060400160405280600581526020017f436f6f64730000000000000000000000000000000000000000000000000000008152506040518060400160405280600981526020017f636f6f6465734e465400000000000000000000000000000000000000000000008152508160009080519060200190620000bb9291906200011f565b508060019080519060200190620000d49291906200011f565b50505080600860006101000a81548173ffffffffffffffffffffffffffffffffffffffff021916908373ffffffffffffffffffffffffffffffffffffffff16021790555050620002d0565b8280546200012d906200029a565b90600052602060002090601f0160209004810192826200015157600085556200019d565b82601f106200016c57805160ff19168380011785556200019d565b828001600101855582156200019d579182015b828111156200019c5782518255916020019190600101906200017f565b5b509050620001ac9190620001b0565b5090565b5b80821115620001cb576000816000905550600101620001b1565b5090565b600080fd5b600073ffffffffffffffffffffffffffffffffffffffff82169050919050565b60006200020182620001d4565b9050919050565b6200021381620001f4565b81146200021f57600080fd5b50565b600081519050620002338162000208565b92915050565b600060208284031215620002525762000251620001cf565b5b6000620002628482850162000222565b91505092915050565b7f4e487b7100000000000000000000000000000000000000000000000000000000600052602260045260246000fd5b60006002820490506001821680620002b357607f821691505b60208210811415620002ca57620002c96200026b565b5b50919050565b612d4780620002e06000396000f3fe608060405234801561001057600080fd5b50600436106101005760003560e01c806370a0823111610097578063c87b56dd11610066578063c87b56dd146102ab578063cb18ee7b146102db578063e985e9c51461030b578063f5537ede1461033b57610100565b806370a082311461022557806395d89b4114610255578063a22cb46514610273578063b88d4fde1461028f57610100565b806323b872dd116100d357806323b872dd1461019f57806332a2c5d0146101bb57806342842e0e146101d95780636352211e146101f557610100565b806301ffc9a71461010557806306fdde0314610135578063081812fc14610153578063095ea7b314610183575b600080fd5b61011f600480360381019061011a9190611a50565b610357565b60405161012c9190611a98565b60405180910390f35b61013d610439565b60405161014a9190611b4c565b60405180910390f35b61016d60048036038101906101689190611ba4565b6104cb565b60405161017a9190611c12565b60405180910390f35b61019d60048036038101906101989190611c59565b610550565b005b6101b960048036038101906101b49190611c99565b610668565b005b6101c36106c8565b6040516101d09190611c12565b60405180910390f35b6101f360048036038101906101ee9190611c99565b6106f2565b005b61020f600480360381019061020a9190611ba4565b610712565b60405161021c9190611c12565b60405180910390f35b61023f600480360381019061023a9190611cec565b6107c4565b60405161024c9190611d28565b60405180910390f35b61025d61087c565b60405161026a9190611b4c565b60405180910390f35b61028d60048036038101906102889190611d6f565b61090e565b005b6102a960048036038101906102a49190611ee4565b610924565b005b6102c560048036038101906102c09190611ba4565b610986565b6040516102d29190611b4c565b60405180910390f35b6102f560048036038101906102f09190612008565b610ad8565b6040516103029190611d28565b60405180910390f35b61032560048036038101906103209190612051565b610b3c565b6040516103329190611a98565b60405180910390f35b61035560048036038101906103509190611c99565b610bd0565b005b60007f80ac58cd000000000000000000000000000000000000000000000000000000007bffffffffffffffffffffffffffffffffffffffffffffffffffffffff1916827bffffffffffffffffffffffffffffffffffffffffffffffffffffffff1916148061042257507f5b5e139f000000000000000000000000000000000000000000000000000000007bffffffffffffffffffffffffffffffffffffffffffffffffffffffff1916827bffffffffffffffffffffffffffffffffffffffffffffffffffffffff1916145b80610432575061043182610c56565b5b9050919050565b606060008054610448906120c0565b80601f0160208091040260200160405190810160405280929190818152602001828054610474906120c0565b80156104c15780601f10610496576101008083540402835291602001916104c1565b820191906000526020600020905b8154815290600101906020018083116104a457829003601f168201915b5050505050905090565b60006104d682610cc0565b610515576040517f08c379a000000000000000000000000000000000000000000000000000000000815260040161050c90612164565b60405180910390fd5b6004600083815260200190815260200160002060009054906101000a900473ffffffffffffffffffffffffffffffffffffffff169050919050565b600061055b82610712565b90508073ffffffffffffffffffffffffffffffffffffffff168373ffffffffffffffffffffffffffffffffffffffff1614156105cc576040517f08c379a00000000000000000000000000000000000000000000000000000000081526004016105c3906121f6565b60405180910390fd5b8073ffffffffffffffffffffffffffffffffffffffff166105eb610d2c565b73ffffffffffffffffffffffffffffffffffffffff16148061061a575061061981610614610d2c565b610b3c565b5b610659576040517f08c379a000000000000000000000000000000000000000000000000000000000815260040161065090612288565b60405180910390fd5b6106638383610d34565b505050565b610679610673610d2c565b82610ded565b6106b8576040517f08c379a00000000000000000000000000000000000000000000000000000000081526004016106af9061231a565b60405180910390fd5b6106c3838383610ecb565b505050565b6000600860009054906101000a900473ffffffffffffffffffffffffffffffffffffffff16905090565b61070d83838360405180602001604052806000815250610924565b505050565b6000806002600084815260200190815260200160002060009054906101000a900473ffffffffffffffffffffffffffffffffffffffff169050600073ffffffffffffffffffffffffffffffffffffffff168173ffffffffffffffffffffffffffffffffffffffff1614156107bb576040517f08c379a00000000000000000000000000000000000000000000000000000000081526004016107b2906123ac565b60405180910390fd5b80915050919050565b60008073ffffffffffffffffffffffffffffffffffffffff168273ffffffffffffffffffffffffffffffffffffffff161415610835576040517f08c379a000000000000000000000000000000000000000000000000000000000815260040161082c9061243e565b60405180910390fd5b600360008373ffffffffffffffffffffffffffffffffffffffff1673ffffffffffffffffffffffffffffffffffffffff168152602001908152602001600020549050919050565b60606001805461088b906120c0565b80601f01602080910402602001604051908101604052809291908181526020018280546108b7906120c0565b80156109045780601f106108d957610100808354040283529160200191610904565b820191906000526020600020905b8154815290600101906020018083116108e757829003601f168201915b5050505050905090565b610920610919610d2c565b8383611132565b5050565b61093561092f610d2c565b83610ded565b610974576040517f08c379a000000000000000000000000000000000000000000000000000000000815260040161096b9061231a565b60405180910390fd5b6109808484848461129f565b50505050565b606061099182610cc0565b6109d0576040517f08c379a00000000000000000000000000000000000000000000000000000000081526004016109c7906124d0565b60405180910390fd5b60006006600084815260200190815260200160002080546109f0906120c0565b80601f0160208091040260200160405190810160405280929190818152602001828054610a1c906120c0565b8015610a695780601f10610a3e57610100808354040283529160200191610a69565b820191906000526020600020905b815481529060010190602001808311610a4c57829003601f168201915b505050505090506000610a7a6112fb565b9050600081511415610a90578192505050610ad3565b600082511115610ac5578082604051602001610aad92919061252c565b60405160208183030381529060405292505050610ad3565b610ace84611312565b925050505b919050565b6000610ae460076113b9565b6000610af060076113cf565b9050610afc33826113dd565b610b0681846115b7565b610b33600860009054906101000a900473ffffffffffffffffffffffffffffffffffffffff16600161090e565b80915050919050565b6000600560008473ffffffffffffffffffffffffffffffffffffffff1673ffffffffffffffffffffffffffffffffffffffff16815260200190815260200160002060008373ffffffffffffffffffffffffffffffffffffffff1673ffffffffffffffffffffffffffffffffffffffff16815260200190815260200160002060009054906101000a900460ff16905092915050565b8273ffffffffffffffffffffffffffffffffffffffff16610bf082610712565b73ffffffffffffffffffffffffffffffffffffffff1614610c46576040517f08c379a0000000000000000000000000000000000000000000000000000000008152600401610c3d9061259c565b60405180910390fd5b610c51838383610ecb565b505050565b60007f01ffc9a7000000000000000000000000000000000000000000000000000000007bffffffffffffffffffffffffffffffffffffffffffffffffffffffff1916827bffffffffffffffffffffffffffffffffffffffffffffffffffffffff1916149050919050565b60008073ffffffffffffffffffffffffffffffffffffffff166002600084815260200190815260200160002060009054906101000a900473ffffffffffffffffffffffffffffffffffffffff1673ffffffffffffffffffffffffffffffffffffffff1614159050919050565b600033905090565b816004600083815260200190815260200160002060006101000a81548173ffffffffffffffffffffffffffffffffffffffff021916908373ffffffffffffffffffffffffffffffffffffffff160217905550808273ffffffffffffffffffffffffffffffffffffffff16610da783610712565b73ffffffffffffffffffffffffffffffffffffffff167f8c5be1e5ebec7d5bd14f71427d1e84f3dd0314c0f7b2291e5b200ac8c7c3b92560405160405180910390a45050565b6000610df882610cc0565b610e37576040517f08c379a0000000000000000000000000000000000000000000000000000000008152600401610e2e9061262e565b60405180910390fd5b6000610e4283610712565b90508073ffffffffffffffffffffffffffffffffffffffff168473ffffffffffffffffffffffffffffffffffffffff161480610eb157508373ffffffffffffffffffffffffffffffffffffffff16610e99846104cb565b73ffffffffffffffffffffffffffffffffffffffff16145b80610ec25750610ec18185610b3c565b5b91505092915050565b8273ffffffffffffffffffffffffffffffffffffffff16610eeb82610712565b73ffffffffffffffffffffffffffffffffffffffff1614610f41576040517f08c379a0000000000000000000000000000000000000000000000000000000008152600401610f38906126c0565b60405180910390fd5b600073ffffffffffffffffffffffffffffffffffffffff168273ffffffffffffffffffffffffffffffffffffffff161415610fb1576040517f08c379a0000000000000000000000000000000000000000000000000000000008152600401610fa890612752565b60405180910390fd5b610fbc83838361162b565b610fc7600082610d34565b6001600360008573ffffffffffffffffffffffffffffffffffffffff1673ffffffffffffffffffffffffffffffffffffffff168152602001908152602001600020600082825461101791906127a1565b925050819055506001600360008473ffffffffffffffffffffffffffffffffffffffff1673ffffffffffffffffffffffffffffffffffffffff168152602001908152602001600020600082825461106e91906127d5565b92505081905550816002600083815260200190815260200160002060006101000a81548173ffffffffffffffffffffffffffffffffffffffff021916908373ffffffffffffffffffffffffffffffffffffffff160217905550808273ffffffffffffffffffffffffffffffffffffffff168473ffffffffffffffffffffffffffffffffffffffff167fddf252ad1be2c89b69c2b068fc378daa952ba7f163c4a11628f55a4df523b3ef60405160405180910390a461112d838383611630565b505050565b8173ffffffffffffffffffffffffffffffffffffffff168373ffffffffffffffffffffffffffffffffffffffff1614156111a1576040517f08c379a000000000000000000000000000000000000000000000000000000000815260040161119890612877565b60405180910390fd5b80600560008573ffffffffffffffffffffffffffffffffffffffff1673ffffffffffffffffffffffffffffffffffffffff16815260200190815260200160002060008473ffffffffffffffffffffffffffffffffffffffff1673ffffffffffffffffffffffffffffffffffffffff16815260200190815260200160002060006101000a81548160ff0219169083151502179055508173ffffffffffffffffffffffffffffffffffffffff168373ffffffffffffffffffffffffffffffffffffffff167f17307eab39ab6107e8899845ad3d59bd9653f200f220920489ca2b5937696c31836040516112929190611a98565b60405180910390a3505050565b6112aa848484610ecb565b6112b684848484611635565b6112f5576040517f08c379a00000000000000000000000000000000000000000000000000000000081526004016112ec90612909565b60405180910390fd5b50505050565b606060405180602001604052806000815250905090565b606061131d82610cc0565b61135c576040517f08c379a00000000000000000000000000000000000000000000000000000000081526004016113539061299b565b60405180910390fd5b60006113666112fb565b9050600081511161138657604051806020016040528060008152506113b1565b80611390846117bd565b6040516020016113a192919061252c565b6040516020818303038152906040525b915050919050565b6001816000016000828254019250508190555050565b600081600001549050919050565b600073ffffffffffffffffffffffffffffffffffffffff168273ffffffffffffffffffffffffffffffffffffffff16141561144d576040517f08c379a000000000000000000000000000000000000000000000000000000000815260040161144490612a07565b60405180910390fd5b61145681610cc0565b15611496576040517f08c379a000000000000000000000000000000000000000000000000000000000815260040161148d90612a73565b60405180910390fd5b6114a26000838361162b565b6001600360008473ffffffffffffffffffffffffffffffffffffffff1673ffffffffffffffffffffffffffffffffffffffff16815260200190815260200160002060008282546114f291906127d5565b92505081905550816002600083815260200190815260200160002060006101000a81548173ffffffffffffffffffffffffffffffffffffffff021916908373ffffffffffffffffffffffffffffffffffffffff160217905550808273ffffffffffffffffffffffffffffffffffffffff16600073ffffffffffffffffffffffffffffffffffffffff167fddf252ad1be2c89b69c2b068fc378daa952ba7f163c4a11628f55a4df523b3ef60405160405180910390a46115b360008383611630565b5050565b6115c082610cc0565b6115ff576040517f08c379a00000000000000000000000000000000000000000000000000000000081526004016115f690612b05565b60405180910390fd5b80600660008481526020019081526020016000209080519060200190611626929190611941565b505050565b505050565b505050565b60006116568473ffffffffffffffffffffffffffffffffffffffff1661191e565b156117b0578373ffffffffffffffffffffffffffffffffffffffff1663150b7a0261167f610d2c565b8786866040518563ffffffff1660e01b81526004016116a19493929190612b7a565b6020604051808303816000875af19250505080156116dd57506040513d601f19601f820116820180604052508101906116da9190612bdb565b60015b611760573d806000811461170d576040519150601f19603f3d011682016040523d82523d6000602084013e611712565b606091505b50600081511415611758576040517f08c379a000000000000000000000000000000000000000000000000000000000815260040161174f90612909565b60405180910390fd5b805181602001fd5b63150b7a0260e01b7bffffffffffffffffffffffffffffffffffffffffffffffffffffffff1916817bffffffffffffffffffffffffffffffffffffffffffffffffffffffff1916149150506117b5565b600190505b949350505050565b60606000821415611805576040518060400160405280600181526020017f30000000000000000000000000000000000000000000000000000000000000008152509050611919565b600082905060005b6000821461183757808061182090612c08565b915050600a826118309190612c80565b915061180d565b60008167ffffffffffffffff81111561185357611852611db9565b5b6040519080825280601f01601f1916602001820160405280156118855781602001600182028036833780820191505090505b5090505b600085146119125760018261189e91906127a1565b9150600a856118ad9190612cb1565b60306118b991906127d5565b60f81b8183815181106118cf576118ce612ce2565b5b60200101907effffffffffffffffffffffffffffffffffffffffffffffffffffffffffffff1916908160001a905350600a8561190b9190612c80565b9450611889565b8093505050505b919050565b6000808273ffffffffffffffffffffffffffffffffffffffff163b119050919050565b82805461194d906120c0565b90600052602060002090601f01602090048101928261196f57600085556119b6565b82601f1061198857805160ff19168380011785556119b6565b828001600101855582156119b6579182015b828111156119b557825182559160200191906001019061199a565b5b5090506119c391906119c7565b5090565b5b808211156119e05760008160009055506001016119c8565b5090565b6000604051905090565b600080fd5b600080fd5b60007fffffffff0000000000000000000000000000000000000000000000000000000082169050919050565b611a2d816119f8565b8114611a3857600080fd5b50565b600081359050611a4a81611a24565b92915050565b600060208284031215611a6657611a656119ee565b5b6000611a7484828501611a3b565b91505092915050565b60008115159050919050565b611a9281611a7d565b82525050565b6000602082019050611aad6000830184611a89565b92915050565b600081519050919050565b600082825260208201905092915050565b60005b83811015611aed578082015181840152602081019050611ad2565b83811115611afc576000848401525b50505050565b6000601f19601f8301169050919050565b6000611b1e82611ab3565b611b288185611abe565b9350611b38818560208601611acf565b611b4181611b02565b840191505092915050565b60006020820190508181036000830152611b668184611b13565b905092915050565b6000819050919050565b611b8181611b6e565b8114611b8c57600080fd5b50565b600081359050611b9e81611b78565b92915050565b600060208284031215611bba57611bb96119ee565b5b6000611bc884828501611b8f565b91505092915050565b600073ffffffffffffffffffffffffffffffffffffffff82169050919050565b6000611bfc82611bd1565b9050919050565b611c0c81611bf1565b82525050565b6000602082019050611c276000830184611c03565b92915050565b611c3681611bf1565b8114611c4157600080fd5b50565b600081359050611c5381611c2d565b92915050565b60008060408385031215611c7057611c6f6119ee565b5b6000611c7e85828601611c44565b9250506020611c8f85828601611b8f565b9150509250929050565b600080600060608486031215611cb257611cb16119ee565b5b6000611cc086828701611c44565b9350506020611cd186828701611c44565b9250506040611ce286828701611b8f565b9150509250925092565b600060208284031215611d0257611d016119ee565b5b6000611d1084828501611c44565b91505092915050565b611d2281611b6e565b82525050565b6000602082019050611d3d6000830184611d19565b92915050565b611d4c81611a7d565b8114611d5757600080fd5b50565b600081359050611d6981611d43565b92915050565b60008060408385031215611d8657611d856119ee565b5b6000611d9485828601611c44565b9250506020611da585828601611d5a565b9150509250929050565b600080fd5b600080fd5b7f4e487b7100000000000000000000000000000000000000000000000000000000600052604160045260246000fd5b611df182611b02565b810181811067ffffffffffffffff82111715611e1057611e0f611db9565b5b80604052505050565b6000611e236119e4565b9050611e2f8282611de8565b919050565b600067ffffffffffffffff821115611e4f57611e4e611db9565b5b611e5882611b02565b9050602081019050919050565b82818337600083830152505050565b6000611e87611e8284611e34565b611e19565b905082815260208101848484011115611ea357611ea2611db4565b5b611eae848285611e65565b509392505050565b600082601f830112611ecb57611eca611daf565b5b8135611edb848260208601611e74565b91505092915050565b60008060008060808587031215611efe57611efd6119ee565b5b6000611f0c87828801611c44565b9450506020611f1d87828801611c44565b9350506040611f2e87828801611b8f565b925050606085013567ffffffffffffffff811115611f4f57611f4e6119f3565b5b611f5b87828801611eb6565b91505092959194509250565b600067ffffffffffffffff821115611f8257611f81611db9565b5b611f8b82611b02565b9050602081019050919050565b6000611fab611fa684611f67565b611e19565b905082815260208101848484011115611fc757611fc6611db4565b5b611fd2848285611e65565b509392505050565b600082601f830112611fef57611fee611daf565b5b8135611fff848260208601611f98565b91505092915050565b60006020828403121561201e5761201d6119ee565b5b600082013567ffffffffffffffff81111561203c5761203b6119f3565b5b61204884828501611fda565b91505092915050565b60008060408385031215612068576120676119ee565b5b600061207685828601611c44565b925050602061208785828601611c44565b9150509250929050565b7f4e487b7100000000000000000000000000000000000000000000000000000000600052602260045260246000fd5b600060028204905060018216806120d857607f821691505b602082108114156120ec576120eb612091565b5b50919050565b7f4552433732313a20617070726f76656420717565727920666f72206e6f6e657860008201527f697374656e7420746f6b656e0000000000000000000000000000000000000000602082015250565b600061214e602c83611abe565b9150612159826120f2565b604082019050919050565b6000602082019050818103600083015261217d81612141565b9050919050565b7f4552433732313a20617070726f76616c20746f2063757272656e74206f776e6560008201527f7200000000000000000000000000000000000000000000000000000000000000602082015250565b60006121e0602183611abe565b91506121eb82612184565b604082019050919050565b6000602082019050818103600083015261220f816121d3565b9050919050565b7f4552433732313a20617070726f76652063616c6c6572206973206e6f74206f7760008201527f6e6572206e6f7220617070726f76656420666f7220616c6c0000000000000000602082015250565b6000612272603883611abe565b915061227d82612216565b604082019050919050565b600060208201905081810360008301526122a181612265565b9050919050565b7f4552433732313a207472616e736665722063616c6c6572206973206e6f74206f60008201527f776e6572206e6f7220617070726f766564000000000000000000000000000000602082015250565b6000612304603183611abe565b915061230f826122a8565b604082019050919050565b60006020820190508181036000830152612333816122f7565b9050919050565b7f4552433732313a206f776e657220717565727920666f72206e6f6e657869737460008201527f656e7420746f6b656e0000000000000000000000000000000000000000000000602082015250565b6000612396602983611abe565b91506123a18261233a565b604082019050919050565b600060208201905081810360008301526123c581612389565b9050919050565b7f4552433732313a2062616c616e636520717565727920666f7220746865207a6560008201527f726f206164647265737300000000000000000000000000000000000000000000602082015250565b6000612428602a83611abe565b9150612433826123cc565b604082019050919050565b600060208201905081810360008301526124578161241b565b9050919050565b7f45524337323155524953746f726167653a2055524920717565727920666f722060008201527f6e6f6e6578697374656e7420746f6b656e000000000000000000000000000000602082015250565b60006124ba603183611abe565b91506124c58261245e565b604082019050919050565b600060208201905081810360008301526124e9816124ad565b9050919050565b600081905092915050565b600061250682611ab3565b61251081856124f0565b9350612520818560208601611acf565b80840191505092915050565b600061253882856124fb565b915061254482846124fb565b91508190509392505050565b7f46726f6d2061646472657373206d75737420626520746f6b656e206f776e6572600082015250565b6000612586602083611abe565b915061259182612550565b602082019050919050565b600060208201905081810360008301526125b581612579565b9050919050565b7f4552433732313a206f70657261746f7220717565727920666f72206e6f6e657860008201527f697374656e7420746f6b656e0000000000000000000000000000000000000000602082015250565b6000612618602c83611abe565b9150612623826125bc565b604082019050919050565b600060208201905081810360008301526126478161260b565b9050919050565b7f4552433732313a207472616e736665722066726f6d20696e636f72726563742060008201527f6f776e6572000000000000000000000000000000000000000000000000000000602082015250565b60006126aa602583611abe565b91506126b58261264e565b604082019050919050565b600060208201905081810360008301526126d98161269d565b9050919050565b7f4552433732313a207472616e7366657220746f20746865207a65726f2061646460008201527f7265737300000000000000000000000000000000000000000000000000000000602082015250565b600061273c602483611abe565b9150612747826126e0565b604082019050919050565b6000602082019050818103600083015261276b8161272f565b9050919050565b7f4e487b7100000000000000000000000000000000000000000000000000000000600052601160045260246000fd5b60006127ac82611b6e565b91506127b783611b6e565b9250828210156127ca576127c9612772565b5b828203905092915050565b60006127e082611b6e565b91506127eb83611b6e565b9250827fffffffffffffffffffffffffffffffffffffffffffffffffffffffffffffffff038211156128205761281f612772565b5b828201905092915050565b7f4552433732313a20617070726f766520746f2063616c6c657200000000000000600082015250565b6000612861601983611abe565b915061286c8261282b565b602082019050919050565b6000602082019050818103600083015261289081612854565b9050919050565b7f4552433732313a207472616e7366657220746f206e6f6e20455243373231526560008201527f63656976657220696d706c656d656e7465720000000000000000000000000000602082015250565b60006128f3603283611abe565b91506128fe82612897565b604082019050919050565b60006020820190508181036000830152612922816128e6565b9050919050565b7f4552433732314d657461646174613a2055524920717565727920666f72206e6f60008201527f6e6578697374656e7420746f6b656e0000000000000000000000000000000000602082015250565b6000612985602f83611abe565b915061299082612929565b604082019050919050565b600060208201905081810360008301526129b481612978565b9050919050565b7f4552433732313a206d696e7420746f20746865207a65726f2061646472657373600082015250565b60006129f1602083611abe565b91506129fc826129bb565b602082019050919050565b60006020820190508181036000830152612a20816129e4565b9050919050565b7f4552433732313a20746f6b656e20616c7265616479206d696e74656400000000600082015250565b6000612a5d601c83611abe565b9150612a6882612a27565b602082019050919050565b60006020820190508181036000830152612a8c81612a50565b9050919050565b7f45524337323155524953746f726167653a2055524920736574206f66206e6f6e60008201527f6578697374656e7420746f6b656e000000000000000000000000000000000000602082015250565b6000612aef602e83611abe565b9150612afa82612a93565b604082019050919050565b60006020820190508181036000830152612b1e81612ae2565b9050919050565b600081519050919050565b600082825260208201905092915050565b6000612b4c82612b25565b612b568185612b30565b9350612b66818560208601611acf565b612b6f81611b02565b840191505092915050565b6000608082019050612b8f6000830187611c03565b612b9c6020830186611c03565b612ba96040830185611d19565b8181036060830152612bbb8184612b41565b905095945050505050565b600081519050612bd581611a24565b92915050565b600060208284031215612bf157612bf06119ee565b5b6000612bff84828501612bc6565b91505092915050565b6000612c1382611b6e565b91507fffffffffffffffffffffffffffffffffffffffffffffffffffffffffffffffff821415612c4657612c45612772565b5b600182019050919050565b7f4e487b7100000000000000000000000000000000000000000000000000000000600052601260045260246000fd5b6000612c8b82611b6e565b9150612c9683611b6e565b925082612ca657612ca5612c51565b5b828204905092915050565b6000612cbc82611b6e565b9150612cc783611b6e565b925082612cd757612cd6612c51565b5b828206905092915050565b7f4e487b7100000000000000000000000000000000000000000000000000000000600052603260045260246000fdfea26469706673582212200ff9c46221da870b74d2001d6b5c719b097a92551fdbfea0702df74fdb49021164736f6c634300080a0033",
  "immutableReferences": {},
  "source": "// SPDX-License-Identifier: MIT\npragma solidity >=0.4.22 <0.9.0;\n\nimport \"@openzeppelin/contracts/utils/Counters.sol\";\nimport \"@openzeppelin/contracts/token/ERC721/extensions/ERC721URIStorage.sol\";\nimport \"@openzeppelin/contracts/token/ERC721/extensions/ERC721Enumerable.sol\";\nimport \"@openzeppelin/contracts/token/ERC721/ERC721.sol\";\n\n\n\ncontract NFT is ERC721URIStorage{\n\n    using Counters for Counters.Counter;\n    Counters.Counter private nftTokenId;\n\n\n    address contractAddress;\n\n    constructor(address marketplaceAddress)ERC721(\"Coods\",\"coodesNFT\"){\n\n        contractAddress = marketplaceAddress;\n\n    }\n\n    function createNFtToken(string memory nftTokenURl)public  returns (uint256){\n        nftTokenId.increment();\n        uint256 id = nftTokenId.current();\n        _mint(msg.sender,id);\n\n        _setTokenURI(id,nftTokenURl);\n   \n        setApprovalForAll  (contractAddress,true);\n    \n\n        return id;\n    \n    }\n\n        //Transfate nft after\n\n  function transferToken(address from, address to, uint256 tokenId) external {\n        require(ownerOf(tokenId) == from, \"From address must be token owner\");\n        _transfer(from, to, tokenId);\n    }\n\n\n    function getContractAddress() public view returns (address){\n      return contractAddress;\n    }\n\n\n\n\n\n}",
  "sourcePath": "/Users/mrbebo/Documents/GitHub/OpenSky_NFt_Martplace/contracts/NFT.sol",
  "compiler": {
    "name": "solc",
    "version": "0.8.10+commit.fc410830.Emscripten.clang"
  },
  "schemaVersion": "3.4.3",
  "updatedAt": "2022-08-22T12:54:41.804Z",
  "networkType": "ethereum",
  "devdoc": {
    "kind": "dev",
    "methods": {
      "approve(address,uint256)": {
        "details": "See {IERC721-approve}."
      },
      "balanceOf(address)": {
        "details": "See {IERC721-balanceOf}."
      },
      "getApproved(uint256)": {
        "details": "See {IERC721-getApproved}."
      },
      "isApprovedForAll(address,address)": {
        "details": "See {IERC721-isApprovedForAll}."
      },
      "name()": {
        "details": "See {IERC721Metadata-name}."
      },
      "ownerOf(uint256)": {
        "details": "See {IERC721-ownerOf}."
      },
      "safeTransferFrom(address,address,uint256)": {
        "details": "See {IERC721-safeTransferFrom}."
      },
      "safeTransferFrom(address,address,uint256,bytes)": {
        "details": "See {IERC721-safeTransferFrom}."
      },
      "setApprovalForAll(address,bool)": {
        "details": "See {IERC721-setApprovalForAll}."
      },
      "supportsInterface(bytes4)": {
        "details": "See {IERC165-supportsInterface}."
      },
      "symbol()": {
        "details": "See {IERC721Metadata-symbol}."
      },
      "tokenURI(uint256)": {
        "details": "See {IERC721Metadata-tokenURI}."
      },
      "transferFrom(address,address,uint256)": {
        "details": "See {IERC721-transferFrom}."
      }
    },
    "version": 1
  },
  "userdoc": {
    "kind": "user",
    "methods": {},
    "version": 1
  }
}