{
  "contractName": "NFTMarketPlace",
  "abi": [
    {
      "inputs": [],
      "stateMutability": "nonpayable",
      "type": "constructor"
    },
    {
      "anonymous": false,
      "inputs": [
        {
          "indexed": true,
          "internalType": "address",
          "name": "nftContract",
          "type": "address"
        },
        {
          "indexed": true,
          "internalType": "uint256",
          "name": "id",
          "type": "uint256"
        },
        {
          "indexed": false,
          "internalType": "uint256",
          "name": "tokenId",
          "type": "uint256"
        },
        {
          "indexed": false,
          "internalType": "address",
          "name": "creator",
          "type": "address"
        },
        {
          "indexed": false,
          "internalType": "address",
          "name": "seller",
          "type": "address"
        },
        {
          "indexed": false,
          "internalType": "address",
          "name": "owner",
          "type": "address"
        },
        {
          "indexed": false,
          "internalType": "uint256",
          "name": "price",
          "type": "uint256"
        },
        {
          "indexed": false,
          "internalType": "bool",
          "name": "sold",
          "type": "bool"
        },
        {
          "indexed": false,
          "internalType": "address",
          "name": "oldOwner",
          "type": "address"
        },
        {
          "indexed": false,
          "internalType": "address",
          "name": "oldSeller",
          "type": "address"
        },
        {
          "indexed": false,
          "internalType": "uint256",
          "name": "oldPrice",
          "type": "uint256"
        },
        {
          "indexed": false,
          "internalType": "bool",
          "name": "isResell",
          "type": "bool"
        },
        {
          "indexed": false,
          "internalType": "bool",
          "name": "soldFirstTime",
          "type": "bool"
        }
      ],
      "name": "NftMarketItemCreated",
      "type": "event"
    },
    {
      "anonymous": false,
      "inputs": [
        {
          "indexed": true,
          "internalType": "uint256",
          "name": "itemId",
          "type": "uint256"
        }
      ],
      "name": "ProductListed",
      "type": "event"
    },
    {
      "anonymous": false,
      "inputs": [
        {
          "indexed": true,
          "internalType": "uint256",
          "name": "id",
          "type": "uint256"
        },
        {
          "indexed": true,
          "internalType": "address",
          "name": "nftContract",
          "type": "address"
        },
        {
          "indexed": true,
          "internalType": "uint256",
          "name": "tokenId",
          "type": "uint256"
        },
        {
          "indexed": false,
          "internalType": "address",
          "name": "creator",
          "type": "address"
        },
        {
          "indexed": false,
          "internalType": "address",
          "name": "seller",
          "type": "address"
        },
        {
          "indexed": false,
          "internalType": "address",
          "name": "owner",
          "type": "address"
        },
        {
          "indexed": false,
          "internalType": "uint256",
          "name": "price",
          "type": "uint256"
        },
        {
          "indexed": false,
          "internalType": "address",
          "name": "oldOwner",
          "type": "address"
        },
        {
          "indexed": false,
          "internalType": "address",
          "name": "oldSeller",
          "type": "address"
        },
        {
          "indexed": false,
          "internalType": "uint256",
          "name": "oldPrice",
          "type": "uint256"
        },
        {
          "indexed": false,
          "internalType": "bool",
          "name": "isResell",
          "type": "bool"
        },
        {
          "indexed": false,
          "internalType": "bool",
          "name": "soldFirstTime",
          "type": "bool"
        }
      ],
      "name": "ProductSold",
      "type": "event"
    },
    {
      "anonymous": false,
      "inputs": [
        {
          "indexed": true,
          "internalType": "uint256",
          "name": "id",
          "type": "uint256"
        },
        {
          "indexed": true,
          "internalType": "uint256",
          "name": "newPrice",
          "type": "uint256"
        },
        {
          "indexed": false,
          "internalType": "bool",
          "name": "sold",
          "type": "bool"
        },
        {
          "indexed": false,
          "internalType": "address",
          "name": "owner",
          "type": "address"
        },
        {
          "indexed": false,
          "internalType": "address",
          "name": "seller",
          "type": "address"
        },
        {
          "indexed": false,
          "internalType": "bool",
          "name": "soldFirstTime",
          "type": "bool"
        }
      ],
      "name": "ProductUpdated",
      "type": "event"
    },
    {
      "inputs": [],
      "name": "gettheMarketFees",
      "outputs": [
        {
          "internalType": "uint256",
          "name": "",
          "type": "uint256"
        }
      ],
      "stateMutability": "view",
      "type": "function",
      "constant": true
    },
    {
      "inputs": [
        {
          "internalType": "address",
          "name": "nftContract",
          "type": "address"
        },
        {
          "internalType": "uint256",
          "name": "tokenId",
          "type": "uint256"
        },
        {
          "internalType": "uint256",
          "name": "price",
          "type": "uint256"
        }
      ],
      "name": "createItemForSale",
      "outputs": [],
      "stateMutability": "payable",
      "type": "function",
      "payable": true
    },
    {
      "inputs": [
        {
          "internalType": "address",
          "name": "nftContract",
          "type": "address"
        },
        {
          "internalType": "uint256",
          "name": "nftItemId",
          "type": "uint256"
        }
      ],
      "name": "buyNFt",
      "outputs": [],
      "stateMutability": "payable",
      "type": "function",
      "payable": true
    },
    {
      "inputs": [
        {
          "internalType": "address",
          "name": "nftContract",
          "type": "address"
        },
        {
          "internalType": "uint256",
          "name": "itemId",
          "type": "uint256"
        },
        {
          "internalType": "uint256",
          "name": "newPrice",
          "type": "uint256"
        }
      ],
      "name": "putItemToResell",
      "outputs": [],
      "stateMutability": "payable",
      "type": "function",
      "payable": true
    },
    {
      "inputs": [
        {
          "internalType": "address",
          "name": "nftContract",
          "type": "address"
        },
        {
          "internalType": "uint256",
          "name": "nftItemId",
          "type": "uint256"
        }
      ],
      "name": "cancelResellWitholdPrice",
      "outputs": [],
      "stateMutability": "payable",
      "type": "function",
      "payable": true
    },
    {
      "inputs": [
        {
          "internalType": "uint256",
          "name": "id",
          "type": "uint256"
        }
      ],
      "name": "fetchSingleItem",
      "outputs": [
        {
          "components": [
            {
              "internalType": "address",
              "name": "nftContract",
              "type": "address"
            },
            {
              "internalType": "uint256",
              "name": "id",
              "type": "uint256"
            },
            {
              "internalType": "uint256",
              "name": "tokenId",
              "type": "uint256"
            },
            {
              "internalType": "address payable",
              "name": "creator",
              "type": "address"
            },
            {
              "internalType": "address payable",
              "name": "seller",
              "type": "address"
            },
            {
              "internalType": "address payable",
              "name": "owner",
              "type": "address"
            },
            {
              "internalType": "uint256",
              "name": "price",
              "type": "uint256"
            },
            {
              "internalType": "bool",
              "name": "sold",
              "type": "bool"
            },
            {
              "internalType": "address",
              "name": "oldOwner",
              "type": "address"
            },
            {
              "internalType": "address",
              "name": "oldSeller",
              "type": "address"
            },
            {
              "internalType": "uint256",
              "name": "oldPrice",
              "type": "uint256"
            },
            {
              "internalType": "bool",
              "name": "isResell",
              "type": "bool"
            },
            {
              "internalType": "bool",
              "name": "soldFirstTime",
              "type": "bool"
            }
          ],
          "internalType": "struct NFTMarketPlace.NftMerketItem",
          "name": "",
          "type": "tuple"
        }
      ],
      "stateMutability": "view",
      "type": "function",
      "constant": true
    },
    {
      "inputs": [],
      "name": "getMyItemCreated",
      "outputs": [
        {
          "components": [
            {
              "internalType": "address",
              "name": "nftContract",
              "type": "address"
            },
            {
              "internalType": "uint256",
              "name": "id",
              "type": "uint256"
            },
            {
              "internalType": "uint256",
              "name": "tokenId",
              "type": "uint256"
            },
            {
              "internalType": "address payable",
              "name": "creator",
              "type": "address"
            },
            {
              "internalType": "address payable",
              "name": "seller",
              "type": "address"
            },
            {
              "internalType": "address payable",
              "name": "owner",
              "type": "address"
            },
            {
              "internalType": "uint256",
              "name": "price",
              "type": "uint256"
            },
            {
              "internalType": "bool",
              "name": "sold",
              "type": "bool"
            },
            {
              "internalType": "address",
              "name": "oldOwner",
              "type": "address"
            },
            {
              "internalType": "address",
              "name": "oldSeller",
              "type": "address"
            },
            {
              "internalType": "uint256",
              "name": "oldPrice",
              "type": "uint256"
            },
            {
              "internalType": "bool",
              "name": "isResell",
              "type": "bool"
            },
            {
              "internalType": "bool",
              "name": "soldFirstTime",
              "type": "bool"
            }
          ],
          "internalType": "struct NFTMarketPlace.NftMerketItem[]",
          "name": "",
          "type": "tuple[]"
        }
      ],
      "stateMutability": "view",
      "type": "function",
      "constant": true
    },
    {
      "inputs": [],
      "name": "getMyNFTPurchased",
      "outputs": [
        {
          "components": [
            {
              "internalType": "address",
              "name": "nftContract",
              "type": "address"
            },
            {
              "internalType": "uint256",
              "name": "id",
              "type": "uint256"
            },
            {
              "internalType": "uint256",
              "name": "tokenId",
              "type": "uint256"
            },
            {
              "internalType": "address payable",
              "name": "creator",
              "type": "address"
            },
            {
              "internalType": "address payable",
              "name": "seller",
              "type": "address"
            },
            {
              "internalType": "address payable",
              "name": "owner",
              "type": "address"
            },
            {
              "internalType": "uint256",
              "name": "price",
              "type": "uint256"
            },
            {
              "internalType": "bool",
              "name": "sold",
              "type": "bool"
            },
            {
              "internalType": "address",
              "name": "oldOwner",
              "type": "address"
            },
            {
              "internalType": "address",
              "name": "oldSeller",
              "type": "address"
            },
            {
              "internalType": "uint256",
              "name": "oldPrice",
              "type": "uint256"
            },
            {
              "internalType": "bool",
              "name": "isResell",
              "type": "bool"
            },
            {
              "internalType": "bool",
              "name": "soldFirstTime",
              "type": "bool"
            }
          ],
          "internalType": "struct NFTMarketPlace.NftMerketItem[]",
          "name": "",
          "type": "tuple[]"
        }
      ],
      "stateMutability": "view",
      "type": "function",
      "constant": true
    },
    {
      "inputs": [],
      "name": "getAllUnsoldItems",
      "outputs": [
        {
          "components": [
            {
              "internalType": "address",
              "name": "nftContract",
              "type": "address"
            },
            {
              "internalType": "uint256",
              "name": "id",
              "type": "uint256"
            },
            {
              "internalType": "uint256",
              "name": "tokenId",
              "type": "uint256"
            },
            {
              "internalType": "address payable",
              "name": "creator",
              "type": "address"
            },
            {
              "internalType": "address payable",
              "name": "seller",
              "type": "address"
            },
            {
              "internalType": "address payable",
              "name": "owner",
              "type": "address"
            },
            {
              "internalType": "uint256",
              "name": "price",
              "type": "uint256"
            },
            {
              "internalType": "bool",
              "name": "sold",
              "type": "bool"
            },
            {
              "internalType": "address",
              "name": "oldOwner",
              "type": "address"
            },
            {
              "internalType": "address",
              "name": "oldSeller",
              "type": "address"
            },
            {
              "internalType": "uint256",
              "name": "oldPrice",
              "type": "uint256"
            },
            {
              "internalType": "bool",
              "name": "isResell",
              "type": "bool"
            },
            {
              "internalType": "bool",
              "name": "soldFirstTime",
              "type": "bool"
            }
          ],
          "internalType": "struct NFTMarketPlace.NftMerketItem[]",
          "name": "",
          "type": "tuple[]"
        }
      ],
      "stateMutability": "view",
      "type": "function",
      "constant": true
    },
    {
      "inputs": [],
      "name": "getMyResellItems",
      "outputs": [
        {
          "components": [
            {
              "internalType": "address",
              "name": "nftContract",
              "type": "address"
            },
            {
              "internalType": "uint256",
              "name": "id",
              "type": "uint256"
            },
            {
              "internalType": "uint256",
              "name": "tokenId",
              "type": "uint256"
            },
            {
              "internalType": "address payable",
              "name": "creator",
              "type": "address"
            },
            {
              "internalType": "address payable",
              "name": "seller",
              "type": "address"
            },
            {
              "internalType": "address payable",
              "name": "owner",
              "type": "address"
            },
            {
              "internalType": "uint256",
              "name": "price",
              "type": "uint256"
            },
            {
              "internalType": "bool",
              "name": "sold",
              "type": "bool"
            },
            {
              "internalType": "address",
              "name": "oldOwner",
              "type": "address"
            },
            {
              "internalType": "address",
              "name": "oldSeller",
              "type": "address"
            },
            {
              "internalType": "uint256",
              "name": "oldPrice",
              "type": "uint256"
            },
            {
              "internalType": "bool",
              "name": "isResell",
              "type": "bool"
            },
            {
              "internalType": "bool",
              "name": "soldFirstTime",
              "type": "bool"
            }
          ],
          "internalType": "struct NFTMarketPlace.NftMerketItem[]",
          "name": "",
          "type": "tuple[]"
        }
      ],
      "stateMutability": "view",
      "type": "function",
      "constant": true
    }
  ],
  "bytecode": "0x608060405267016345785d8a000060025534801561001c57600080fd5b50600160008190555033600160006101000a81548173ffffffffffffffffffffffffffffffffffffffff021916908373ffffffffffffffffffffffffffffffffffffffff1602179055506136c7806100756000396000f3fe6080604052600436106100915760003560e01c80639e31e655116100595780639e31e65514610140578063a2bf932a1461016b578063a3c32044146101a8578063bca52442146101d3578063c7a5bc4e146101fe57610091565b806325135cbf14610096578063446269e6146100c157806358271fff146100ec578063670d343714610108578063858c295314610124575b600080fd5b3480156100a257600080fd5b506100ab61021a565b6040516100b89190612c77565b60405180910390f35b3480156100cd57600080fd5b506100d6610627565b6040516100e39190612c77565b60405180910390f35b61010660048036038101906101019190612cf6565b610ab8565b005b610122600480360381019061011d9190612d49565b610ff0565b005b61013e60048036038101906101399190612d49565b61129c565b005b34801561014c57600080fd5b5061015561163b565b6040516101629190612c77565b60405180910390f35b34801561017757600080fd5b50610192600480360381019061018d9190612d89565b611acc565b60405161019f9190612ec1565b60405180910390f35b3480156101b457600080fd5b506101bd611d77565b6040516101ca9190612c77565b60405180910390f35b3480156101df57600080fd5b506101e8612286565b6040516101f59190612eec565b60405180910390f35b61021860048036038101906102139190612cf6565b612290565b005b6060600061022860036128b4565b9050600061023660046128b4565b61024060036128b4565b61024a9190612f36565b90506000808267ffffffffffffffff81111561026957610268612f6a565b5b6040519080825280602002602001820160405280156102a257816020015b61028f612934565b8152602001906001900390816102875790505b50905060005b8481101561061c57600073ffffffffffffffffffffffffffffffffffffffff16600560006001846102d99190612f99565b815260200190815260200160002060050160009054906101000a900473ffffffffffffffffffffffffffffffffffffffff1673ffffffffffffffffffffffffffffffffffffffff1614156106095760006001826103369190612f99565b9050600060056000838152602001908152602001600020905080604051806101a00160405290816000820160009054906101000a900473ffffffffffffffffffffffffffffffffffffffff1673ffffffffffffffffffffffffffffffffffffffff1673ffffffffffffffffffffffffffffffffffffffff16815260200160018201548152602001600282015481526020016003820160009054906101000a900473ffffffffffffffffffffffffffffffffffffffff1673ffffffffffffffffffffffffffffffffffffffff1673ffffffffffffffffffffffffffffffffffffffff1681526020016004820160009054906101000a900473ffffffffffffffffffffffffffffffffffffffff1673ffffffffffffffffffffffffffffffffffffffff1673ffffffffffffffffffffffffffffffffffffffff1681526020016005820160009054906101000a900473ffffffffffffffffffffffffffffffffffffffff1673ffffffffffffffffffffffffffffffffffffffff1673ffffffffffffffffffffffffffffffffffffffff168152602001600682015481526020016007820160009054906101000a900460ff161515151581526020016007820160019054906101000a900473ffffffffffffffffffffffffffffffffffffffff1673ffffffffffffffffffffffffffffffffffffffff1673ffffffffffffffffffffffffffffffffffffffff1681526020016008820160009054906101000a900473ffffffffffffffffffffffffffffffffffffffff1673ffffffffffffffffffffffffffffffffffffffff1673ffffffffffffffffffffffffffffffffffffffff16815260200160098201548152602001600a820160009054906101000a900460ff16151515158152602001600a820160019054906101000a900460ff1615151515815250508486815181106105ec576105eb612fef565b5b60200260200101819052506001856106049190612f99565b945050505b80806106149061301e565b9150506102a8565b508094505050505090565b6060600061063560036128b4565b905060008060005b838110156106de573373ffffffffffffffffffffffffffffffffffffffff166005600060018461066d9190612f99565b815260200190815260200160002060050160009054906101000a900473ffffffffffffffffffffffffffffffffffffffff1673ffffffffffffffffffffffffffffffffffffffff1614156106cb576001836106c89190612f99565b92505b80806106d69061301e565b91505061063d565b5060008267ffffffffffffffff8111156106fb576106fa612f6a565b5b60405190808252806020026020018201604052801561073457816020015b610721612934565b8152602001906001900390816107195790505b50905060005b84811015610aad573373ffffffffffffffffffffffffffffffffffffffff166005600060018461076a9190612f99565b815260200190815260200160002060050160009054906101000a900473ffffffffffffffffffffffffffffffffffffffff1673ffffffffffffffffffffffffffffffffffffffff161415610a9a5760006001826107c79190612f99565b9050600060056000838152602001908152602001600020905080604051806101a00160405290816000820160009054906101000a900473ffffffffffffffffffffffffffffffffffffffff1673ffffffffffffffffffffffffffffffffffffffff1673ffffffffffffffffffffffffffffffffffffffff16815260200160018201548152602001600282015481526020016003820160009054906101000a900473ffffffffffffffffffffffffffffffffffffffff1673ffffffffffffffffffffffffffffffffffffffff1673ffffffffffffffffffffffffffffffffffffffff1681526020016004820160009054906101000a900473ffffffffffffffffffffffffffffffffffffffff1673ffffffffffffffffffffffffffffffffffffffff1673ffffffffffffffffffffffffffffffffffffffff1681526020016005820160009054906101000a900473ffffffffffffffffffffffffffffffffffffffff1673ffffffffffffffffffffffffffffffffffffffff1673ffffffffffffffffffffffffffffffffffffffff168152602001600682015481526020016007820160009054906101000a900460ff161515151581526020016007820160019054906101000a900473ffffffffffffffffffffffffffffffffffffffff1673ffffffffffffffffffffffffffffffffffffffff1673ffffffffffffffffffffffffffffffffffffffff1681526020016008820160009054906101000a900473ffffffffffffffffffffffffffffffffffffffff1673ffffffffffffffffffffffffffffffffffffffff1673ffffffffffffffffffffffffffffffffffffffff16815260200160098201548152602001600a820160009054906101000a900460ff16151515158152602001600a820160019054906101000a900460ff161515151581525050848681518110610a7d57610a7c612fef565b5b6020026020010181905250600185610a959190612f99565b945050505b8080610aa59061301e565b91505061073a565b508094505050505090565b60026000541415610afe576040517f08c379a0000000000000000000000000000000000000000000000000000000008152600401610af5906130c4565b60405180910390fd5b6002600081905550813373ffffffffffffffffffffffffffffffffffffffff166005600083815260200190815260200160002060050160009054906101000a900473ffffffffffffffffffffffffffffffffffffffff1673ffffffffffffffffffffffffffffffffffffffff1614610bab576040517f08c379a0000000000000000000000000000000000000000000000000000000008152600401610ba290613156565b60405180910390fd5b60006005600085815260200190815260200160002060020154905060008311610c09576040517f08c379a0000000000000000000000000000000000000000000000000000000008152600401610c00906131c2565b60405180910390fd5b6002543414610c4d576040517f08c379a0000000000000000000000000000000000000000000000000000000008152600401610c449061322e565b60405180910390fd5b60008590508073ffffffffffffffffffffffffffffffffffffffff1663f5537ede3330856040518463ffffffff1660e01b8152600401610c8f9392919061325d565b600060405180830381600087803b158015610ca957600080fd5b505af1158015610cbd573d6000803e3d6000fd5b5050505060006005600087815260200190815260200160002060050160009054906101000a900473ffffffffffffffffffffffffffffffffffffffff16905060006005600088815260200190815260200160002060040160009054906101000a900473ffffffffffffffffffffffffffffffffffffffff1690506000600560008981526020019081526020016000206006015490506000600560008a815260200190815260200160002060050160006101000a81548173ffffffffffffffffffffffffffffffffffffffff021916908373ffffffffffffffffffffffffffffffffffffffff16021790555082600560008a815260200190815260200160002060040160006101000a81548173ffffffffffffffffffffffffffffffffffffffff021916908373ffffffffffffffffffffffffffffffffffffffff16021790555086600560008a8152602001908152602001600020600601819055506000600560008a815260200190815260200160002060070160006101000a81548160ff0219169083151502179055506000600560008a8152602001908152602001600020600a0160006101000a81548160ff02191690831515021790555082600560008a815260200190815260200160002060070160016101000a81548173ffffffffffffffffffffffffffffffffffffffff021916908373ffffffffffffffffffffffffffffffffffffffff16021790555081600560008a815260200190815260200160002060080160006101000a81548173ffffffffffffffffffffffffffffffffffffffff021916908373ffffffffffffffffffffffffffffffffffffffff16021790555080600560008a815260200190815260200160002060090181905550610f4560046128c2565b600160009054906101000a900473ffffffffffffffffffffffffffffffffffffffff1673ffffffffffffffffffffffffffffffffffffffff166108fc6002549081150290604051600060405180830381858888f19350505050158015610faf573d6000803e3d6000fd5b50877f221866c21613d6f0d77d42f9309b122a25deed1bc186cff9c2f1ddafc52c34f660405160405180910390a25050505050506001600081905550505050565b60026000541415611036576040517f08c379a000000000000000000000000000000000000000000000000000000000815260040161102d906130c4565b60405180910390fd5b60026000819055506000600560008381526020019081526020016000206006015490506000600560008481526020019081526020016000206002015490508134146110b6576040517f08c379a00000000000000000000000000000000000000000000000000000000081526004016110ad906132e0565b60405180910390fd5b6005600084815260200190815260200160002060040160009054906101000a900473ffffffffffffffffffffffffffffffffffffffff1673ffffffffffffffffffffffffffffffffffffffff166108fc349081150290604051600060405180830381858888f19350505050158015611132573d6000803e3d6000fd5b508373ffffffffffffffffffffffffffffffffffffffff166323b872dd3033846040518463ffffffff1660e01b81526004016111709392919061325d565b600060405180830381600087803b15801561118a57600080fd5b505af115801561119e573d6000803e3d6000fd5b50505050336005600085815260200190815260200160002060050160006101000a81548173ffffffffffffffffffffffffffffffffffffffff021916908373ffffffffffffffffffffffffffffffffffffffff16021790555060016005600085815260200190815260200160002060070160006101000a81548160ff021916908315150217905550600160056000858152602001908152602001600020600a0160006101000a81548160ff021916908315150217905550600160056000858152602001908152602001600020600a0160016101000a81548160ff02191690831515021790555061128e600461291e565b505060016000819055505050565b600260005414156112e2576040517f08c379a00000000000000000000000000000000000000000000000000000000081526004016112d9906130c4565b60405180910390fd5b60026000819055506000600560008381526020019081526020016000206009015490506000600560008481526020019081526020016000206002015490508373ffffffffffffffffffffffffffffffffffffffff166323b872dd3033846040518463ffffffff1660e01b815260040161135d9392919061325d565b600060405180830381600087803b15801561137757600080fd5b505af115801561138b573d6000803e3d6000fd5b50505050336005600085815260200190815260200160002060050160006101000a81548173ffffffffffffffffffffffffffffffffffffffff021916908373ffffffffffffffffffffffffffffffffffffffff1602179055508160056000858152602001908152602001600020600601819055506005600084815260200190815260200160002060080160009054906101000a900473ffffffffffffffffffffffffffffffffffffffff166005600085815260200190815260200160002060040160006101000a81548173ffffffffffffffffffffffffffffffffffffffff021916908373ffffffffffffffffffffffffffffffffffffffff16021790555060016005600085815260200190815260200160002060070160006101000a81548160ff0219169083151502179055506114c3600461291e565b60056000848152602001908152602001600020600201546005600085815260200190815260200160002060000160009054906101000a900473ffffffffffffffffffffffffffffffffffffffff1673ffffffffffffffffffffffffffffffffffffffff1660056000868152602001908152602001600020600101547f944dd0af3aadc440ffe9bdcc594167b91c13e697182731c20c5d5e0aba1fa0586005600088815260200190815260200160002060030160009054906101000a900473ffffffffffffffffffffffffffffffffffffffff166005600089815260200190815260200160002060040160009054906101000a900473ffffffffffffffffffffffffffffffffffffffff1633600560008b8152602001908152602001600020600601546000806000600560008f8152602001908152602001600020600a0160009054906101000a900460ff166001604051611625999897969594939291906133a9565b60405180910390a4505060016000819055505050565b6060600061164960036128b4565b905060008060005b838110156116f2573373ffffffffffffffffffffffffffffffffffffffff16600560006001846116819190612f99565b815260200190815260200160002060040160009054906101000a900473ffffffffffffffffffffffffffffffffffffffff1673ffffffffffffffffffffffffffffffffffffffff1614156116df576001836116dc9190612f99565b92505b80806116ea9061301e565b915050611651565b5060008267ffffffffffffffff81111561170f5761170e612f6a565b5b60405190808252806020026020018201604052801561174857816020015b611735612934565b81526020019060019003908161172d5790505b50905060005b84811015611ac1573373ffffffffffffffffffffffffffffffffffffffff166005600060018461177e9190612f99565b815260200190815260200160002060040160009054906101000a900473ffffffffffffffffffffffffffffffffffffffff1673ffffffffffffffffffffffffffffffffffffffff161415611aae5760006001826117db9190612f99565b9050600060056000838152602001908152602001600020905080604051806101a00160405290816000820160009054906101000a900473ffffffffffffffffffffffffffffffffffffffff1673ffffffffffffffffffffffffffffffffffffffff1673ffffffffffffffffffffffffffffffffffffffff16815260200160018201548152602001600282015481526020016003820160009054906101000a900473ffffffffffffffffffffffffffffffffffffffff1673ffffffffffffffffffffffffffffffffffffffff1673ffffffffffffffffffffffffffffffffffffffff1681526020016004820160009054906101000a900473ffffffffffffffffffffffffffffffffffffffff1673ffffffffffffffffffffffffffffffffffffffff1673ffffffffffffffffffffffffffffffffffffffff1681526020016005820160009054906101000a900473ffffffffffffffffffffffffffffffffffffffff1673ffffffffffffffffffffffffffffffffffffffff1673ffffffffffffffffffffffffffffffffffffffff168152602001600682015481526020016007820160009054906101000a900460ff161515151581526020016007820160019054906101000a900473ffffffffffffffffffffffffffffffffffffffff1673ffffffffffffffffffffffffffffffffffffffff1673ffffffffffffffffffffffffffffffffffffffff1681526020016008820160009054906101000a900473ffffffffffffffffffffffffffffffffffffffff1673ffffffffffffffffffffffffffffffffffffffff1673ffffffffffffffffffffffffffffffffffffffff16815260200160098201548152602001600a820160009054906101000a900460ff16151515158152602001600a820160019054906101000a900460ff161515151581525050848681518110611a9157611a90612fef565b5b6020026020010181905250600185611aa99190612f99565b945050505b8080611ab99061301e565b91505061174e565b508094505050505090565b611ad4612934565b60056000838152602001908152602001600020604051806101a00160405290816000820160009054906101000a900473ffffffffffffffffffffffffffffffffffffffff1673ffffffffffffffffffffffffffffffffffffffff1673ffffffffffffffffffffffffffffffffffffffff16815260200160018201548152602001600282015481526020016003820160009054906101000a900473ffffffffffffffffffffffffffffffffffffffff1673ffffffffffffffffffffffffffffffffffffffff1673ffffffffffffffffffffffffffffffffffffffff1681526020016004820160009054906101000a900473ffffffffffffffffffffffffffffffffffffffff1673ffffffffffffffffffffffffffffffffffffffff1673ffffffffffffffffffffffffffffffffffffffff1681526020016005820160009054906101000a900473ffffffffffffffffffffffffffffffffffffffff1673ffffffffffffffffffffffffffffffffffffffff1673ffffffffffffffffffffffffffffffffffffffff168152602001600682015481526020016007820160009054906101000a900460ff161515151581526020016007820160019054906101000a900473ffffffffffffffffffffffffffffffffffffffff1673ffffffffffffffffffffffffffffffffffffffff1673ffffffffffffffffffffffffffffffffffffffff1681526020016008820160009054906101000a900473ffffffffffffffffffffffffffffffffffffffff1673ffffffffffffffffffffffffffffffffffffffff1673ffffffffffffffffffffffffffffffffffffffff16815260200160098201548152602001600a820160009054906101000a900460ff16151515158152602001600a820160019054906101000a900460ff1615151515815250509050919050565b60606000611d8560036128b4565b905060008060005b83811015611e6d573373ffffffffffffffffffffffffffffffffffffffff1660056000600184611dbd9190612f99565b815260200190815260200160002060040160009054906101000a900473ffffffffffffffffffffffffffffffffffffffff1673ffffffffffffffffffffffffffffffffffffffff16148015611e4557506000151560056000600184611e229190612f99565b815260200190815260200160002060070160009054906101000a900460ff161515145b15611e5a57600183611e579190612f99565b92505b8080611e659061301e565b915050611d8d565b5060008267ffffffffffffffff811115611e8a57611e89612f6a565b5b604051908082528060200260200182016040528015611ec357816020015b611eb0612934565b815260200190600190039081611ea85790505b50905060005b8481101561227b573373ffffffffffffffffffffffffffffffffffffffff1660056000600184611ef99190612f99565b815260200190815260200160002060040160009054906101000a900473ffffffffffffffffffffffffffffffffffffffff1673ffffffffffffffffffffffffffffffffffffffff16148015611f8157506000151560056000600184611f5e9190612f99565b815260200190815260200160002060070160009054906101000a900460ff161515145b15612268576000600182611f959190612f99565b9050600060056000838152602001908152602001600020905080604051806101a00160405290816000820160009054906101000a900473ffffffffffffffffffffffffffffffffffffffff1673ffffffffffffffffffffffffffffffffffffffff1673ffffffffffffffffffffffffffffffffffffffff16815260200160018201548152602001600282015481526020016003820160009054906101000a900473ffffffffffffffffffffffffffffffffffffffff1673ffffffffffffffffffffffffffffffffffffffff1673ffffffffffffffffffffffffffffffffffffffff1681526020016004820160009054906101000a900473ffffffffffffffffffffffffffffffffffffffff1673ffffffffffffffffffffffffffffffffffffffff1673ffffffffffffffffffffffffffffffffffffffff1681526020016005820160009054906101000a900473ffffffffffffffffffffffffffffffffffffffff1673ffffffffffffffffffffffffffffffffffffffff1673ffffffffffffffffffffffffffffffffffffffff168152602001600682015481526020016007820160009054906101000a900460ff161515151581526020016007820160019054906101000a900473ffffffffffffffffffffffffffffffffffffffff1673ffffffffffffffffffffffffffffffffffffffff1673ffffffffffffffffffffffffffffffffffffffff1681526020016008820160009054906101000a900473ffffffffffffffffffffffffffffffffffffffff1673ffffffffffffffffffffffffffffffffffffffff1673ffffffffffffffffffffffffffffffffffffffff16815260200160098201548152602001600a820160009054906101000a900460ff16151515158152602001600a820160019054906101000a900460ff16151515158152505084868151811061224b5761224a612fef565b5b60200260200101819052506001856122639190612f99565b945050505b80806122739061301e565b915050611ec9565b508094505050505090565b6000600254905090565b600260005414156122d6576040517f08c379a00000000000000000000000000000000000000000000000000000000081526004016122cd906130c4565b60405180910390fd5b600260008190555060008111612321576040517f08c379a000000000000000000000000000000000000000000000000000000000815260040161231890613482565b60405180910390fd5b60008211612364576040517f08c379a000000000000000000000000000000000000000000000000000000000815260040161235b906134ee565b60405180910390fd5b60025434146123a8576040517f08c379a000000000000000000000000000000000000000000000000000000000815260040161239f9061322e565b60405180910390fd5b600073ffffffffffffffffffffffffffffffffffffffff168373ffffffffffffffffffffffffffffffffffffffff161415612418576040517f08c379a000000000000000000000000000000000000000000000000000000000815260040161240f9061355a565b60405180910390fd5b612422600361291e565b600061242e60036128b4565b9050604051806101a001604052808573ffffffffffffffffffffffffffffffffffffffff1681526020018281526020018481526020013373ffffffffffffffffffffffffffffffffffffffff1681526020013373ffffffffffffffffffffffffffffffffffffffff168152602001600073ffffffffffffffffffffffffffffffffffffffff168152602001838152602001600015158152602001600073ffffffffffffffffffffffffffffffffffffffff168152602001600073ffffffffffffffffffffffffffffffffffffffff168152602001838152602001600015158152602001600015158152506005600083815260200190815260200160002060008201518160000160006101000a81548173ffffffffffffffffffffffffffffffffffffffff021916908373ffffffffffffffffffffffffffffffffffffffff160217905550602082015181600101556040820151816002015560608201518160030160006101000a81548173ffffffffffffffffffffffffffffffffffffffff021916908373ffffffffffffffffffffffffffffffffffffffff16021790555060808201518160040160006101000a81548173ffffffffffffffffffffffffffffffffffffffff021916908373ffffffffffffffffffffffffffffffffffffffff16021790555060a08201518160050160006101000a81548173ffffffffffffffffffffffffffffffffffffffff021916908373ffffffffffffffffffffffffffffffffffffffff16021790555060c0820151816006015560e08201518160070160006101000a81548160ff0219169083151502179055506101008201518160070160016101000a81548173ffffffffffffffffffffffffffffffffffffffff021916908373ffffffffffffffffffffffffffffffffffffffff1602179055506101208201518160080160006101000a81548173ffffffffffffffffffffffffffffffffffffffff021916908373ffffffffffffffffffffffffffffffffffffffff160217905550610140820151816009015561016082015181600a0160006101000a81548160ff02191690831515021790555061018082015181600a0160016101000a81548160ff0219169083151502179055509050508373ffffffffffffffffffffffffffffffffffffffff166323b872dd3330866040518463ffffffff1660e01b81526004016127a29392919061325d565b600060405180830381600087803b1580156127bc57600080fd5b505af11580156127d0573d6000803e3d6000fd5b50505050600160009054906101000a900473ffffffffffffffffffffffffffffffffffffffff1673ffffffffffffffffffffffffffffffffffffffff166108fc6002549081150290604051600060405180830381858888f1935050505015801561283e573d6000803e3d6000fd5b50808473ffffffffffffffffffffffffffffffffffffffff167f5d30be9631a749aedd45b8ea092336081aa65a429014293010081e8c385da3a385333360008860008060008c60008060405161289e9b9a9998979695949392919061357a565b60405180910390a3506001600081905550505050565b600081600001549050919050565b6000816000015490506000811161290e576040517f08c379a000000000000000000000000000000000000000000000000000000000815260040161290590613671565b60405180910390fd5b6001810382600001819055505050565b6001816000016000828254019250508190555050565b604051806101a00160405280600073ffffffffffffffffffffffffffffffffffffffff1681526020016000815260200160008152602001600073ffffffffffffffffffffffffffffffffffffffff168152602001600073ffffffffffffffffffffffffffffffffffffffff168152602001600073ffffffffffffffffffffffffffffffffffffffff16815260200160008152602001600015158152602001600073ffffffffffffffffffffffffffffffffffffffff168152602001600073ffffffffffffffffffffffffffffffffffffffff168152602001600081526020016000151581526020016000151581525090565b600081519050919050565b600082825260208201905092915050565b6000819050602082019050919050565b600073ffffffffffffffffffffffffffffffffffffffff82169050919050565b6000612a7d82612a52565b9050919050565b612a8d81612a72565b82525050565b6000819050919050565b612aa681612a93565b82525050565b6000612ab782612a52565b9050919050565b612ac781612aac565b82525050565b60008115159050919050565b612ae281612acd565b82525050565b6101a082016000820151612aff6000850182612a84565b506020820151612b126020850182612a9d565b506040820151612b256040850182612a9d565b506060820151612b386060850182612abe565b506080820151612b4b6080850182612abe565b5060a0820151612b5e60a0850182612abe565b5060c0820151612b7160c0850182612a9d565b5060e0820151612b8460e0850182612ad9565b50610100820151612b99610100850182612a84565b50610120820151612bae610120850182612a84565b50610140820151612bc3610140850182612a9d565b50610160820151612bd8610160850182612ad9565b50610180820151612bed610180850182612ad9565b50505050565b6000612bff8383612ae8565b6101a08301905092915050565b6000602082019050919050565b6000612c2482612a26565b612c2e8185612a31565b9350612c3983612a42565b8060005b83811015612c6a578151612c518882612bf3565b9750612c5c83612c0c565b925050600181019050612c3d565b5085935050505092915050565b60006020820190508181036000830152612c918184612c19565b905092915050565b600080fd5b612ca781612a72565b8114612cb257600080fd5b50565b600081359050612cc481612c9e565b92915050565b612cd381612a93565b8114612cde57600080fd5b50565b600081359050612cf081612cca565b92915050565b600080600060608486031215612d0f57612d0e612c99565b5b6000612d1d86828701612cb5565b9350506020612d2e86828701612ce1565b9250506040612d3f86828701612ce1565b9150509250925092565b60008060408385031215612d6057612d5f612c99565b5b6000612d6e85828601612cb5565b9250506020612d7f85828601612ce1565b9150509250929050565b600060208284031215612d9f57612d9e612c99565b5b6000612dad84828501612ce1565b91505092915050565b6101a082016000820151612dcd6000850182612a84565b506020820151612de06020850182612a9d565b506040820151612df36040850182612a9d565b506060820151612e066060850182612abe565b506080820151612e196080850182612abe565b5060a0820151612e2c60a0850182612abe565b5060c0820151612e3f60c0850182612a9d565b5060e0820151612e5260e0850182612ad9565b50610100820151612e67610100850182612a84565b50610120820151612e7c610120850182612a84565b50610140820151612e91610140850182612a9d565b50610160820151612ea6610160850182612ad9565b50610180820151612ebb610180850182612ad9565b50505050565b60006101a082019050612ed76000830184612db6565b92915050565b612ee681612a93565b82525050565b6000602082019050612f016000830184612edd565b92915050565b7f4e487b7100000000000000000000000000000000000000000000000000000000600052601160045260246000fd5b6000612f4182612a93565b9150612f4c83612a93565b925082821015612f5f57612f5e612f07565b5b828203905092915050565b7f4e487b7100000000000000000000000000000000000000000000000000000000600052604160045260246000fd5b6000612fa482612a93565b9150612faf83612a93565b9250827fffffffffffffffffffffffffffffffffffffffffffffffffffffffffffffffff03821115612fe457612fe3612f07565b5b828201905092915050565b7f4e487b7100000000000000000000000000000000000000000000000000000000600052603260045260246000fd5b600061302982612a93565b91507fffffffffffffffffffffffffffffffffffffffffffffffffffffffffffffffff82141561305c5761305b612f07565b5b600182019050919050565b600082825260208201905092915050565b7f5265656e7472616e637947756172643a207265656e7472616e742063616c6c00600082015250565b60006130ae601f83613067565b91506130b982613078565b602082019050919050565b600060208201905081810360008301526130dd816130a1565b9050919050565b7f4f6e6c792070726f64756374206f776e65722063616e20646f2074686973206f60008201527f7065726174696f6e000000000000000000000000000000000000000000000000602082015250565b6000613140602883613067565b915061314b826130e4565b604082019050919050565b6000602082019050818103600083015261316f81613133565b9050919050565b7f5072696365206d757374206265206174206c6561737420312077656900000000600082015250565b60006131ac601c83613067565b91506131b782613176565b602082019050919050565b600060208201905081810360008301526131db8161319f565b9050919050565b7f546865204d61726b6574204665657320697320302e3130204574686572000000600082015250565b6000613218601d83613067565b9150613223826131e2565b602082019050919050565b600060208201905081810360008301526132478161320b565b9050919050565b61325781612a72565b82525050565b6000606082019050613272600083018661324e565b61327f602083018561324e565b61328c6040830184612edd565b949350505050565b7f73686f756c642062757920746865207072696365206f66206974656d00000000600082015250565b60006132ca601c83613067565b91506132d582613294565b602082019050919050565b600060208201905081810360008301526132f9816132bd565b9050919050565b6000819050919050565b600061332561332061331b84612a52565b613300565b612a52565b9050919050565b60006133378261330a565b9050919050565b60006133498261332c565b9050919050565b6133598161333e565b82525050565b6000819050919050565b600061338461337f61337a8461335f565b613300565b612a93565b9050919050565b61339481613369565b82525050565b6133a381612acd565b82525050565b6000610120820190506133bf600083018c613350565b6133cc602083018b613350565b6133d9604083018a613350565b6133e66060830189612edd565b6133f3608083018861324e565b61340060a083018761324e565b61340d60c083018661338b565b61341a60e083018561339a565b61342861010083018461339a565b9a9950505050505050505050565b7f50726963652073686f756c64206265206d6f72655468616e2031000000000000600082015250565b600061346c601a83613067565b915061347782613436565b602082019050919050565b6000602082019050818103600083015261349b8161345f565b9050919050565b7f746f6b656e2049642073686f756c64206265206d6f72655468616e2031000000600082015250565b60006134d8601d83613067565b91506134e3826134a2565b602082019050919050565b60006020820190508181036000830152613507816134cb565b9050919050565b7f616464726573732073686f756c64206e6f7420626520657175616c2030783000600082015250565b6000613544601f83613067565b915061354f8261350e565b602082019050919050565b6000602082019050818103600083015261357381613537565b9050919050565b600061016082019050613590600083018e612edd565b61359d602083018d61324e565b6135aa604083018c61324e565b6135b7606083018b61324e565b6135c4608083018a612edd565b6135d160a083018961339a565b6135de60c083018861324e565b6135eb60e083018761324e565b6135f9610100830186612edd565b61360761012083018561339a565b61361561014083018461339a565b9c9b505050505050505050505050565b7f436f756e7465723a2064656372656d656e74206f766572666c6f770000000000600082015250565b600061365b601b83613067565b915061366682613625565b602082019050919050565b6000602082019050818103600083015261368a8161364e565b905091905056fea2646970667358221220d601b0ec20aff1852da913809c9759126d299c1617bfa1ccb6f4d9c1b514323364736f6c634300080a0033",
  "immutableReferences": {},
  "source": "// SPDX-License-Identifier: MIT\npragma solidity >=0.4.22 <0.9.0;\nimport \"@openzeppelin/contracts/utils/Counters.sol\";\nimport \"@openzeppelin/contracts/token/ERC721/ERC721.sol\";\nimport \"@openzeppelin/contracts/security/ReentrancyGuard.sol\";\n\nimport \"./NFT.sol\";\n\n\ncontract NFTMarketPlace is ReentrancyGuard {\n\n    address payable owner;\n    uint256   marketFees = 0.1 ether;\n\n      using Counters for Counters.Counter;\n     Counters.Counter private itemId;\n    Counters.Counter private itemsSold;\n\n     constructor(){\n         owner = payable(msg.sender);\n     }\n\n    struct NftMerketItem{\n              address nftContract;\n        uint256 id;\n        uint256 tokenId;\n          //=>\n        address payable creator;\n        address  payable seller;\n       address payable owner;\n\n        uint256 price;\n        bool sold;\n        address oldOwner;\n        address oldSeller;\n\n        uint256 oldPrice;\n        bool isResell;\n\n               bool soldFirstTime;\n\n\n    }\n\n        event NftMarketItemCreated(\n        address  indexed nftContract,\n        uint256 indexed id,\n        uint256 tokenId,\n       \n        //=>\n         address  creator,\n\n        address  seller,\n         address  owner,\n        uint256 price,\n        bool sold,\n        address oldOwner,\n         address oldSeller,\n\n        uint256 oldPrice,\n       bool isResell,\n                      bool soldFirstTime\n        );\n     //=>\n     event ProductUpdated(\n      uint256 indexed id,\n      uint256 indexed newPrice,\n       bool sold,\n        address  owner,\n         address  seller,\n                               bool soldFirstTime\n\n    );\n      //=>\n\n      //=>\n    event ProductSold(\n        uint256 indexed id,\n        address indexed nftContract,\n        uint256 indexed tokenId,\n        address creator,\n        address seller,\n        address owner,\n        uint256 price,\n        address oldOwner,\n        address oldSeller,\n        uint256 oldPrice,\n        bool isResell,\n                              bool soldFirstTime\n\n    );\n    //==>\n           event ProductListed(\n        uint256 indexed itemId\n    );\n       ///=>\n        modifier onlyProductOrMarketPlaceOwner(uint256 id) {\n        if (idForMarketItem[id].owner != address(0)) {\n            require(idForMarketItem[id].owner == msg.sender);\n        } else {\n            require(\n                idForMarketItem[id].seller == msg.sender || msg.sender == owner\n            );\n        }\n        _;\n    }\n\n    modifier onlyProductSeller(uint256 id) {\n        require(\n            idForMarketItem[id].owner == address(0) &&\n                idForMarketItem[id].seller == msg.sender, \"Only the product can do this operation\"\n        );\n        _;\n    }\n\n    modifier onlyItemOwner(uint256 id) {\n        require(\n            idForMarketItem[id].owner == msg.sender,\n            \"Only product owner can do this operation\"\n        );\n        _;\n    }\n\n      modifier onlyItemOldOwner(uint256 id) {\n        require(\n            idForMarketItem[id].oldOwner == msg.sender,\n            \"Only product Old owner can do this operation\"\n        );\n        _;\n    }\n\n      function gettheMarketFees()public view returns(uint256){\n        return marketFees;\n    }\n///////////////////////////////////\n     mapping(uint256=>NftMerketItem) private idForMarketItem;\n///////////////////////////////////\n    function createItemForSale(address nftContract,uint256 tokenId,uint256 price)public payable nonReentrant {\n        require(price >0,\"Price should be moreThan 1\");\n        require(tokenId >0,\"token Id should be moreThan 1\");\n        require(msg.value == marketFees,\"The Market Fees is 0.10 Ether\");\n\n        require(nftContract != address(0),\"address should not be equal 0x0\");\n        itemId.increment();\n        uint256 id = itemId.current();\n\n        idForMarketItem[id]= NftMerketItem(\n              nftContract,\n            id,\n            tokenId,\n            payable(msg.sender),\n            payable(msg.sender),\n            payable (address (0)),\n            price,\n            false,\n            payable(address(0)),\n            payable(address(0)),\n            price,\n            false,\n            false\n        );\n\n        IERC721(nftContract).transferFrom(msg.sender, address(this), tokenId);\n        payable(owner).transfer(marketFees);\n        emit NftMarketItemCreated(nftContract, id, tokenId,  msg.sender, msg.sender,address(0), price, false,address(0),address(0),price,false,false);\n\n    }\n    //Buy nft\n\n    function buyNFt(address nftContract,uint256 nftItemId) public payable nonReentrant {\n     uint256 price = idForMarketItem[nftItemId].price;\n     uint256 tokenId = idForMarketItem[nftItemId].tokenId;\n\n     require(msg.value == price,\"should buy the price of item\");\n     idForMarketItem[nftItemId].seller.transfer(msg.value);\n        \n\n\n      IERC721(nftContract).transferFrom(address(this), msg.sender, tokenId); //buy\n      idForMarketItem[nftItemId].owner = payable(msg.sender);\n      idForMarketItem[nftItemId].sold =  true;\n        idForMarketItem[nftItemId].isResell =  true;\n            idForMarketItem[nftItemId].soldFirstTime =  true;\n\n\n      itemsSold.increment();\n\n\n         \n    }\n     //REsell\n\n     function putItemToResell(address nftContract, uint256 itemId, uint256 newPrice)\n        public\n        payable\n        nonReentrant\n        onlyItemOwner(itemId)\n    {\n        uint256 tokenId = idForMarketItem[itemId].tokenId;\n        require(newPrice > 0, \"Price must be at least 1 wei\");\n        require(msg.value == marketFees,\"The Market Fees is 0.10 Ether\");\n\n\n        NFT tokenContract = NFT(nftContract);\n\n        tokenContract.transferToken(msg.sender, address(this), tokenId);\n\n        address payable oldOwner = idForMarketItem[itemId].owner;\n          address payable oldSeller = idForMarketItem[itemId].seller;\n\n        uint256 oldPrice = idForMarketItem[itemId].price;\n\n        idForMarketItem[itemId].owner = payable(address(0));\n        idForMarketItem[itemId].seller = oldOwner;\n        idForMarketItem[itemId].price = newPrice;\n        idForMarketItem[itemId].sold = false;\n        idForMarketItem[itemId].isResell = false;\n\n        //Start to save old value\n        idForMarketItem[itemId].oldOwner = oldOwner;\n        idForMarketItem[itemId].oldSeller = oldSeller;\n         idForMarketItem[itemId].oldPrice = oldPrice;\n        \n     itemsSold.decrement();\n      payable(owner).transfer(marketFees);\n          emit ProductListed(itemId);\n\n    }\n\n//TO DO Send when cancel fees to Owner\n        function cancelResellWitholdPrice(address nftContract,uint256 nftItemId) public  payable nonReentrant {\n    uint256 price = idForMarketItem[nftItemId].oldPrice;\n     uint256 tokenId = idForMarketItem[nftItemId].tokenId;\n\n\n\n     //require(msg.value == price,\"should buy the price of item\");\n    //idForMarketItem[nftItemId].seller.transfer(msg.value);\n    //  address sellerAddress = idForMarketItem[nftItemId].seller;\n      IERC721(nftContract).transferFrom(address(this), msg.sender, tokenId); //buy\n      idForMarketItem[nftItemId].owner = payable(msg.sender);\n      idForMarketItem[nftItemId].price = price;\n       idForMarketItem[nftItemId].seller = payable(idForMarketItem[nftItemId].oldSeller);\n      idForMarketItem[nftItemId].sold =  true;\n      itemsSold.increment();\n\n           emit ProductSold(\n            idForMarketItem[nftItemId].id,\n            idForMarketItem[nftItemId].nftContract,\n            idForMarketItem[nftItemId].tokenId,\n            idForMarketItem[nftItemId].creator,\n            idForMarketItem[nftItemId].seller,\n            payable(msg.sender),\n            idForMarketItem[nftItemId].price,\n            address(0),\n            address(0),\n            0,\n            idForMarketItem[nftItemId].isResell ,\n            true\n        );\n\n    }\n\n    ///FETCH SINGLE NFT\n  function fetchSingleItem(uint256 id) public view returns (NftMerketItem memory)\n       \n    {\n        return idForMarketItem[id];\n    }\n    //=>Update Item =>We Dont Use This\n\n    \n\n\n\nfunction getMyItemCreated() public view returns(NftMerketItem[] memory){\nuint256 totalItemCount = itemId.current(); \nuint myItemCount=0;//10\nuint myCurrentIndex =0;\n\nfor(uint i = 0;i<totalItemCount;i++){\n    if(idForMarketItem[i+1].seller == msg.sender){\n        myItemCount+=1;\n\n    }\n}\nNftMerketItem [] memory nftItems = new NftMerketItem[](myItemCount); //list[3]\nfor(uint i = 0;i<totalItemCount;i++){\n    if(idForMarketItem[i+1].seller==msg.sender){      //[1,2,3,4,5]\n      uint currentId = i+1;\n        NftMerketItem storage  currentItem = idForMarketItem[currentId];\n        nftItems[myCurrentIndex] = currentItem;\n        myCurrentIndex +=1;\n        \n    }\n}\n\n\nreturn nftItems;\n\n}\n\n\n//Create My purchased Nft Item\n\nfunction getMyNFTPurchased() public view returns(NftMerketItem[] memory){\nuint256 totalItemCount = itemId.current(); \nuint myItemCount=0;//10\nuint myCurrentIndex =0;\n\nfor(uint i = 0;i<totalItemCount;i++){\n    if(idForMarketItem[i + 1 ].owner == msg.sender){\n        myItemCount+=1;\n\n    }\n}\n\nNftMerketItem [] memory nftItems = new NftMerketItem[](myItemCount); //list[3]\nfor(uint i = 0;i<totalItemCount;i++){\n    if(idForMarketItem[i+1].owner== msg.sender){      //[1,2,3,4,5]\n      uint currentId = i+1;\n        NftMerketItem storage  currentItem = idForMarketItem[currentId];\n        nftItems[myCurrentIndex] = currentItem;\n        myCurrentIndex +=1;\n        \n    }\n}\n\n\nreturn nftItems;\n\n}\n//Fetch  all unsold nft items\nfunction getAllUnsoldItems()public view returns (NftMerketItem[] memory){\n\nuint256 totalItemCount = itemId.current(); \nuint myItemCount= itemId.current() - itemsSold.current();\nuint myCurrentIndex =0;\n\n\n\nNftMerketItem [] memory nftItems = new NftMerketItem[](myItemCount); //list[3]\nfor(uint i = 0;i<totalItemCount;i++){\n    if(idForMarketItem[i+1].owner== address(0)){      //[1,2,3,4,5]\n      uint currentId = i+1;\n        NftMerketItem storage  currentItem = idForMarketItem[currentId];\n        nftItems[myCurrentIndex] = currentItem;\n        myCurrentIndex +=1;\n        \n    }\n}\n\n\nreturn nftItems;\n\n\n}\n\n\n//Get resell my items\n\nfunction getMyResellItems() public view returns(NftMerketItem[] memory){\nuint256 totalItemCount = itemId.current(); \nuint myItemCount=0;//10\nuint myCurrentIndex =0;\n\nfor(uint i = 0;i<totalItemCount;i++){\n    if((idForMarketItem[i + 1 ].seller == msg.sender)&&(idForMarketItem[i + 1 ].sold == false)){\n        myItemCount+=1;\n\n    }\n}\n\nNftMerketItem [] memory nftItems = new NftMerketItem[](myItemCount); //list[3]\nfor(uint i = 0;i<totalItemCount;i++){\n    if((idForMarketItem[i + 1 ].seller == msg.sender)&&(idForMarketItem[i + 1 ].sold == false)){      //[1,2,3,4,5]\n      uint currentId = i+1;\n        NftMerketItem storage  currentItem = idForMarketItem[currentId];\n        nftItems[myCurrentIndex] = currentItem;\n        myCurrentIndex +=1;\n        \n    }\n}\n\n\nreturn nftItems;\n\n}\n}",
  "sourcePath": "/Users/mrbebo/Documents/GitHub/OpenSky_NFt_Martplace/contracts/NFTMarketPlace.sol",
  "compiler": {
    "name": "solc",
    "version": "0.8.10+commit.fc410830.Emscripten.clang"
  },
  "schemaVersion": "3.4.3",
  "updatedAt": "2022-08-22T12:54:41.790Z",
  "networkType": "ethereum",
  "devdoc": {
    "kind": "dev",
    "methods": {},
    "version": 1
  },
  "userdoc": {
    "kind": "user",
    "methods": {
      "fetchSingleItem(uint256)": {
        "notice": "FETCH SINGLE NFT"
      }
    },
    "version": 1
  }
}